:100000000C947E000C94A6000C94A6000C9496050B
:100010000C9496050C9496050C94A6000C94A600DE
:100020000C94A6000C94A6000C94A6000C94A600B8
:100030000C94A6000C94A6000C94A6000C94A600A8
:100040000C94F4040C94A6000C9464050C943E05E6
:100050000C94A6000C94A6000C94A6000C94A60088
:100060000C94A6000C94A6000000000800020100F9
:100070000003040700000000000000005344204B70
:100080006172746520656E746665726E74200053CB
:1000900044204B617274652062657265697420004A
:1000A0005344204B61727465206F6E6C696E6520DD
:1000B00000000000002300260029000000000024AA
:1000C0000027002A0000000000250028002B000463
:1000D00004040404040404020202020202030303EF
:1000E00003030301020408102040800102040810E9
:1000F00020010204081020003F06420811241FBE00
:10010000CFEFD8E0DEBFCDBF22E0A0E4B1E001C078
:100110001D92AC35B207E1F711E0A0E0B1E0E0E8F4
:10012000F1E102C005900D92A034B107D9F710E0BB
:10013000CDE7D0E004C02197FE010E94A808CC378B
:10014000D107C9F70E9430070C94B3080C94000043
:10015000CF93DF93EC012FB7F894809193019091A6
:100160009401A0919501B09196012FBF888799873E
:10017000AA87BB87E881F9810284F385E02DCE014F
:10018000099597FF1EC02FB7F89480919301909125
:100190009401A0919501B09196012FBF4885598592
:1001A0006A857B85841B950BA60BB70B4C815D8103
:1001B0006E817F8184179507A607B707D8F28FEF66
:1001C0009FEFDF91CF910895833081F028F4813043
:1001D00099F08230A1F008958730A9F08830B9F005
:1001E0008430D1F4809180008F7D03C080918000A5
:1001F0008F7780938000089584B58F7702C084B58F
:100200008F7D84BD08958091B0008F7703C0809169
:10021000B0008F7D8093B00008953FB7F89480912F
:100220008F0190919001A0919101B091920126B51A
:10023000A89B05C02F3F19F00196A11DB11D3FBF1E
:10024000BA2FA92F982F8827820F911DA11DB11DAC
:10025000BC01CD0142E0660F771F881F991F4A95A8
:10026000D1F708958F929F92AF92BF92CF92DF9273
:10027000EF92FF926B017C010E940D014B015C012A
:10028000C114D104E104F104F1F00E940D01DC017C
:10029000CB0188199909AA09BB09883E9340A10599
:1002A000B10570F321E0C21AD108E108F10888EE27
:1002B000880E83E0981EA11CB11CC114D104E10476
:1002C000F10419F7DDCFFF90EF90DF90CF90BF9052
:1002D000AF909F908F900895CF92DF92EF92FF9210
:1002E0000F931F93CF93DF936C017A018B01C0E0D2
:1002F000D0E0CE15DF0581F0D8016D918D01D601DA
:10030000ED91FC910190F081E02DC6010995892BBA
:1003100011F02196EECF7E01C701DF91CF911F91A1
:100320000F91FF90EF90DF90CF900895FC01538DD7
:10033000448D252F30E0842F90E0821B930B5417BF
:1003400010F0CF96089501970895FC01918D828D4C
:10035000981761F0828DDF01A80FB11D5D968C9119
:10036000928D9F5F9F73928F90E008958FEF9FEF24
:100370000895FC01918D828D981731F0828DE80FE0
:10038000F11D858D90E008958FEF9FEF0895FC019A
:10039000918D228D892F90E0805C9F4F821B910967
:1003A0008F739927089587E991E00E94C70121E0A2
:1003B000892B09F420E0822F0895FC01848DDF0150
:1003C000A80FB11DA35ABF4F2C91848D90E00196C8
:1003D0008F739927848FA689B7892C93A089B189B7
:1003E0008C91837080648C93938D848D981306C058
:1003F0000288F389E02D80818F7D80830895EF92BC
:10040000FF920F931F93CF93DF93EC0181E0888FCE
:100410009B8D8C8D981305C0E889F989808185FDB5
:1004200026C0F62E0B8D10E00F5F1F4F0F731127A4
:10043000E02E8C8DE8120CC00FB607FCFACFE889CD
:10044000F989808185FFF5CFCE010E94DD01F1CFD2
:100450008B8DFE01E80FF11DE35AFF4FF0829FB72D
:10046000F8940B8FEA89FB89808180620AC09FB76C
:10047000F894EE89FF896083E889F9898081837027
:10048000806480839FBF81E090E0DF91CF911F91D6
:100490000F91FF90EF900895CF93DF93EC01888D3B
:1004A0008823C9F0EA89FB89808185FD05C0A88978
:1004B000B9898C9186FD0FC00FB607FCF5CF8081FE
:1004C00085FFF2CFA889B9898C9185FFEDCFCE0148
:1004D0000E94DD01E7CFDF91CF91089580E090E0A9
:1004E000892B29F00E94D30181110C9400000895FA
:1004F00020918201309183012817390771F490917E
:10050000810180918001981741F0E0918101F0E034
:10051000E05CFE4F808190E008958FEF9FEF08959B
:1005200008951F93CF93DF93DC015C968D919C918E
:100530005D97009739F421E030E013963C932E93B9
:1005400012973BC05196ED91FC91529750962C9189
:100550005097322F30951FB75E964C915E97742F4F
:10056000727041FD6095F8944081772311F0422B21
:1005700001C043234083EC012197F1F748E050810B
:1005800060FF02C0522B01C053235083EC0121971E
:10059000F1F76695415099F78081772319F083230D
:1005A000808302C0282B20831FBF5C968D919C9175
:1005B0005D970197F1F781E090E0DF91CF911F9176
:1005C000089520918201309183012817390771F431
:1005D000809180012091810190E0805C9F4F821B7F
:1005E000910960E470E00E945E08089580E090E068
:1005F0000895209182013091830128173907B9F4B9
:100600009091810180918001981789F0E09181019A
:10061000F0E0E05CFE4F80812091810130E02F5FAF
:100620003F4F2F7333272093810190E008958FEF80
:100630009FEF0895089580E090E00895009769F095
:10064000FC0101900020E9F73197AF01481B590BDD
:10065000BC0187E991E00C946C0180E090E0089582
:100660008F929F92AF92BF920F931F93CF93DF937E
:10067000CDB7DEB7A1970FB6F894DEBF0FBECDBFE2
:1006800019A2423008F44AE08E010F5D1F4F842EFC
:10069000912CA12CB12CA50194010E947208E62F87
:1006A000B901CA0101501109EA3014F4E05D01C03A
:1006B000E95CD801EC93232B242B252B61F7C8018F
:1006C0000E941E03A1960FB6F894DEBF0FBECDBFE9
:1006D000DF91CF911F910F91BF90AF909F908F901E
:1006E00008950F931F93CF93DF938C01C0E0D0E068
:1006F000F801EC0FFD1F6491662341F087E991E05A
:100700000E94FF01892B11F02196F2CF84E291E043
:100710000E941E038C0F9D1FDF91CF911F910F919F
:1007200008952F923F924F925F926F927F928F9295
:100730009F92AF92BF92CF92DF92EF92FF920F9370
:100740001F93CF93DF93CDB7DEB764970FB6F894BE
:10075000DEBF0FBECDBF6E019BE0C90ED11C9AE07B
:10076000D6011D929A95E9F79EE79B879FEF9C879C
:1007700096E09D879FEE9C8B8E87788B698BFE0120
:100780003C969E012E5E3F4F80E090E04191840FA9
:10079000911D2E173F07D1F79195819591099A8B5D
:1007A0008B8B8AE0382EFE0131962F013E01F8E056
:1007B0006F0E711C222423948FB7F89440919301FB
:1007C0005091940160919501709196018FBF809135
:1007D000360290913702A0913802B0913902481B3D
:1007E000590B6A0B7B0B80913A0290913B02A0E07F
:1007F000B0E0481759076A077B0720F080913C0258
:100800008111B0C08091340290913502DC01ED91EC
:10081000FC910084F185E02D09950A970CF49BC0AA
:10082000F201832D11928A95E9F78091340290911B
:1008300035020E94A80097FDE5CF89838E37A9F77E
:1008400080903402909035028E010E5F1F4F580148
:10085000E12CF12CC4010E94A80097FD0BC0D5012A
:100860008D935D01BFEFEB1AFB0AE9E0EE16F10490
:1008700089F703C0F9E0EF12C5CF8A818F3F11F6E7
:100880008B81863009F0BECF8A858F3E09F0BACFC2
:1008900080E090E0D8012D918D01820F911D6A16A4
:1008A0007B06C1F791958195910928853985322775
:1008B000232732278217930709F0A4CF8C816E81FA
:1008C0007F81162F072F8D33F1F028F48A33B9F189
:1008D0008B33D1F197CF8F3359F1803409F092CF18
:1008E00084E291E00E941E0385E391E00E941E03D2
:1008F000B80180E090E04AE00E94300384E291E099
:100900000E941E037FCF87E291E00E941E03B80180
:1009100080E090E04AE00E94300384E291E00E948F
:100920001E0364E670E080E090E00E9432016ACF2E
:1009300071FF68CF20923C0280EA90E009C071FF0D
:1009400061CF8FE890E004C071FF5CCF8CE790E04E
:100950000E94710357CF61E070E080E090E00E9458
:1009600032012ACF82E390E090933B0280933A02D7
:100970008091340290913502DC01ED91FC9102806E
:10098000F381E02D4AE050E0B60109952FB7F894C5
:100990008091930190919401A0919501B09196015D
:1009A0002FBF8093360290933702A0933802B09302
:1009B000390264960FB6F894DEBF0FBECDBFDF914B
:1009C000CF911F910F91FF90EF90DF90CF90BF904C
:1009D000AF909F908F907F906F905F904F903F90DF
:1009E0002F9008950E94AE081F920F920FB60F929B
:1009F00011242F933F938F939F93AF93BF93809135
:100A0000930190919401A0919501B091960130913C
:100A10008E0123E0230F2D3720F40196A11DB11D77
:100A200005C026E8230F0296A11DB11D20938E015B
:100A30008093930190939401A0939501B0939601B4
:100A400080918F0190919001A0919101B0919201BC
:100A50000196A11DB11D80938F0190939001A093E9
:100A60009101B0939201BF91AF919F918F913F916E
:100A70002F910F900FBE0F901F9018951F920F92FD
:100A80000FB60F9211242F933F934F935F936F9361
:100A90007F938F939F93AF93BF93EF93FF9387E9D8
:100AA00091E00E94DD01FF91EF91BF91AF919F9185
:100AB0008F917F916F915F914F913F912F910F9007
:100AC0000FBE0F901F9018951F920F920FB60F92A6
:100AD00011242F938F939F93EF93FF93E091A7019E
:100AE000F091A8018081E091AD01F091AE0182FD0D
:100AF00012C090818091B0018F5F8F732091B101FE
:100B0000821751F0E091B001F0E0E956FE4F958F69
:100B10008093B00101C08081FF91EF919F918F91EF
:100B20002F910F900FBE0F901F9018951F920F924C
:100B30000FB60F9211242F933F934F935F936F93B0
:100B40007F938F939F93AF93BF93EF93FF93E09126
:100B50008201F0918301309709F451C0968DA685EA
:100B6000B785858591FF04C09C91892329F447C0EE
:100B70009C91892309F043C0A389B4899C918589FC
:100B8000809589238C93868997890197F1F7608DE9
:100B9000718DA685B785558538E020E0CB0101979A
:100BA000F1F7822F90E095958795282F4C9145235A
:100BB00009F02068315091F7868D81FD2095809154
:100BC000800190E001968F73992730918101381749
:100BD00049F0A0918001B0E0A05CBE4F2C938093BF
:100BE000800103C0868D8160868F828D938D0197F1
:100BF000F1F7A389B4899C918589892B8C93FF9106
:100C0000EF91BF91AF919F918F917F916F915F9184
:100C10004F913F912F910F900FBE0F901F901895FD
:100C20001F93CF93DF93282F30E0F901E859FF4F4E
:100C30008491F901ED51FF4FD491F901E153FF4F38
:100C4000C491CC23C1F0162F81110E94E400EC2F37
:100C5000F0E0EE0FFF1FEB53FF4FA591B4919FB74C
:100C6000F894111104C08C91D095D82302C0EC9156
:100C7000DE2BDC939FBFDF91CF911F910895CF931F
:100C8000DF9310929A011092990188EE93E0A0E010
:100C9000B0E080939B0190939C01A0939D01B09341
:100CA0009E0124E031E0309398012093970125ECD8
:100CB00030E03093A4012093A30124EC30E0309382
:100CC000A6012093A50120EC30E03093A8012093E9
:100CD000A70121EC30E03093AA012093A90122EC76
:100CE00030E03093AC012093AB0126EC30E0309340
:100CF000AE012093AD011092B0011092B10110929B
:100D0000B2011092B3011092400210923F02809300
:100D1000410290934202A0934302B093440286E1C1
:100D200091E090933E0280933D0210925402109203
:100D300053021092560210925502109258021092CD
:100D4000570210925A021092590260915B026E7F14
:100D50006D7F60935B026695617081E0682783E038
:100D60000E941006E6EEF0E02491E2EDF0E08491BE
:100D7000882399F090E0880F991FFC01E554FF4FFC
:100D8000A591B491FC01EB53FF4F859194918FB7DE
:100D9000F894EC91E22BEC938FBFE6EEF0E0E49157
:100DA000E0934D02E2EDF0E0E491F0E0EE0FFF1F82
:100DB000EB53FF4F8591949190934F0280934E0295
:100DC000E5EEF0E02491E1EDF0E084918823C1F0BC
:100DD00090E0880F991FFC01E554FF4FC591D49115
:100DE000FC01EB53FF4FA591B4919FB7F894888114
:100DF000E22FE0958E2388838C91E823EC939FBFAC
:100E000080915B0281FD04C061E082E00E941006D7
:100E100082E080934902E5EEF0E0E491E0934A023B
:100E2000E1EDF0E0E491F0E0EE0FFF1FEF54FF4F33
:100E30008591949190934C0280934B028DE392E0C4
:100E4000909335028093340282E390E090933B02CA
:100E500080933A0281E080933C02DF91CF91089524
:100E6000789484B5826084BD84B5816084BD85B585
:100E7000826085BD85B5816085BD80916E00816091
:100E800080936E0010928100809181008260809337
:100E90008100809181008160809381008091800039
:100EA0008160809380008091B10084608093B10064
:100EB0008091B00081608093B00080917A0084605E
:100EC00080937A0080917A00826080937A0080918A
:100ED0007A00816080937A0080917A0080688093A4
:100EE0007A001092C100E091A701F091A80182E080
:100EF0008083E091A301F091A4011082E091A5010B
:100F0000F091A6018FEC80831092AF01E091AB01CC
:100F1000F091AC0186E08083E091A901F091AA01F3
:100F2000808180618083E091A901F091AA01808194
:100F300088608083E091A901F091AA018081806896
:100F40008083E091A901F091AA0180818F7D808347
:100F500010928701109286011092850110928401EF
:100F60006AE070E086E00E94910360E070E087E054
:100F70000E94910310928901109288010DE610E001
:100F800098EEE92E90E0F92E24EDC22E20E0D22E2C
:100F9000AA24A394B12C0E940D0140908A01509084
:100FA0008B0160908C0170908D01DC01CB01841964
:100FB0009509A609B70980319742A105B10508F442
:100FC00059C00E940D0160938A0170938B01809338
:100FD0008C0190938D01C0918601D0918701D093AF
:100FE0008501C0938401F8018491F7019490F60182
:100FF0008490882009F441C081110E94E400E82D0A
:10100000F0E0EE0FFF1FEF54FF4FA591B4918C91CC
:10101000982299F1B0928701A0928601809188016F
:1010200090918901009739F0019791F01092890110
:10103000109288010DC080918601909187018130C6
:10104000910531F4CD2B21F490938901809388018F
:101050008091880190918901009761F0019731F4A6
:1010600060E070E088E10E94910304C01092890161
:10107000109288010E946E028ECF1092870110920A
:101080008601CCCF86E191E090933E0280933D02B1
:1010900080918201909183018D53924071F4E0918F
:1010A0005002F091510290818091520280958923E3
:1010B00080831092830110928201089597FB072E7E
:1010C00016F4009407D077FD09D00E94940807FC1D
:1010D00005D03EF4909581959F4F08957095619548
:1010E0007F4F0895A1E21A2EAA1BBB1BFD010DC064
:1010F000AA1FBB1FEE1FFF1FA217B307E407F507C8
:1011000020F0A21BB30BE40BF50B661F771F881FA3
:10111000991F1A9469F760957095809590959B0139
:10112000AC01BD01CF010895AA1BBB1B51E107C053
:10113000AA1FBB1FA617B70710F0A61BB70B881F67
:10114000991F5A95A9F780959095BC01CD010895F6
:10115000EE0FFF1F0590F491E02D099481E090E0DF
:10116000F8940C94B30810E0CDE7D0E004C0FE0181
:101170000E94A8082196CE37D107C9F7F894FFCF6F
:1011800000000000FF016C0196014C02C701A5019F
:10119000B9010000000091026C011B039002E10202
:1011A000F90278020D0A00547261636B2062656572
:1011B0006E64657400436F6D204572726F7220001B
:00000001FF
